{
  "abi": [
    {
      "type": "constructor",
      "inputs": [
        {
          "name": "verifier_address",
          "type": "address",
          "internalType": "address"
        }
      ],
      "stateMutability": "nonpayable"
    },
    {
      "type": "function",
      "name": "DEV_ONLY_setStates",
      "inputs": [
        {
          "name": "_total_steps",
          "type": "uint64",
          "internalType": "uint64"
        },
        {
          "name": "_current_position",
          "type": "uint64",
          "internalType": "uint64"
        }
      ],
      "outputs": [],
      "stateMutability": "nonpayable"
    },
    {
      "type": "function",
      "name": "current_position",
      "inputs": [],
      "outputs": [
        {
          "name": "",
          "type": "uint64",
          "internalType": "uint64"
        }
      ],
      "stateMutability": "view"
    },
    {
      "type": "function",
      "name": "getStates",
      "inputs": [],
      "outputs": [
        {
          "name": "",
          "type": "uint64",
          "internalType": "uint64"
        },
        {
          "name": "",
          "type": "uint64",
          "internalType": "uint64"
        }
      ],
      "stateMutability": "view"
    },
    {
      "type": "function",
      "name": "owner",
      "inputs": [],
      "outputs": [
        {
          "name": "",
          "type": "address",
          "internalType": "address"
        }
      ],
      "stateMutability": "view"
    },
    {
      "type": "function",
      "name": "setOwner",
      "inputs": [
        {
          "name": "new_owner",
          "type": "address",
          "internalType": "address"
        }
      ],
      "outputs": [],
      "stateMutability": "nonpayable"
    },
    {
      "type": "function",
      "name": "setVerifier",
      "inputs": [
        {
          "name": "verifier_address",
          "type": "address",
          "internalType": "address"
        }
      ],
      "outputs": [],
      "stateMutability": "nonpayable"
    },
    {
      "type": "function",
      "name": "setVerifierImageCommitments",
      "inputs": [
        {
          "name": "commitments",
          "type": "uint256[3]",
          "internalType": "uint256[3]"
        }
      ],
      "outputs": [],
      "stateMutability": "nonpayable"
    },
    {
      "type": "function",
      "name": "submitGame",
      "inputs": [
        {
          "name": "proof",
          "type": "uint256[]",
          "internalType": "uint256[]"
        },
        {
          "name": "verify_instance",
          "type": "uint256[]",
          "internalType": "uint256[]"
        },
        {
          "name": "aux",
          "type": "uint256[]",
          "internalType": "uint256[]"
        },
        {
          "name": "instances",
          "type": "uint256[][]",
          "internalType": "uint256[][]"
        }
      ],
      "outputs": [],
      "stateMutability": "nonpayable"
    },
    {
      "type": "function",
      "name": "total_steps",
      "inputs": [],
      "outputs": [
        {
          "name": "",
          "type": "uint64",
          "internalType": "uint64"
        }
      ],
      "stateMutability": "view"
    },
    {
      "type": "function",
      "name": "verifier",
      "inputs": [],
      "outputs": [
        {
          "name": "",
          "type": "address",
          "internalType": "address"
        }
      ],
      "stateMutability": "view"
    },
    {
      "type": "function",
      "name": "zk_image_commitments",
      "inputs": [
        {
          "name": "",
          "type": "uint256",
          "internalType": "uint256"
        }
      ],
      "outputs": [
        {
          "name": "",
          "type": "uint256",
          "internalType": "uint256"
        }
      ],
      "stateMutability": "view"
    },
    {
      "type": "event",
      "name": "UpdateState",
      "inputs": [
        {
          "name": "previous_total_steps",
          "type": "uint64",
          "indexed": false,
          "internalType": "uint64"
        },
        {
          "name": "previous_position",
          "type": "uint64",
          "indexed": false,
          "internalType": "uint64"
        },
        {
          "name": "total_steps",
          "type": "uint64",
          "indexed": false,
          "internalType": "uint64"
        },
        {
          "name": "current_position",
          "type": "uint64",
          "indexed": false,
          "internalType": "uint64"
        }
      ],
      "anonymous": false
    },
    {
      "type": "event",
      "name": "VerificationSucceeded",
      "inputs": [
        {
          "name": "sender",
          "type": "address",
          "indexed": true,
          "internalType": "address"
        }
      ],
      "anonymous": false
    }
  ],
  "bytecode": {
    "object": "0x608060405234801561001057600080fd5b50604051610bfd380380610bfd83398101604081905261002f91610062565b600180546001600160a01b03199081163317909155600080546001600160a01b0390931692909116919091179055610092565b60006020828403121561007457600080fd5b81516001600160a01b038116811461008b57600080fd5b9392505050565b610b5c806100a16000396000f3fe608060405234801561001057600080fd5b50600436106100a95760003560e01c8063560bfc7e11610071578063560bfc7e1461014b5780638c1336ec1461015e5780638da5cb5b1461017f5780639347a33014610190578063b6e9a4fd146101a3578063d8ab8274146101b657600080fd5b806313af4035146100ae5780632b7ac3f3146100c35780634d56acd3146100f357806352de5f98146101255780635437988d14610138575b600080fd5b6100c16100bc3660046107a3565b6101e0565b005b6000546100d6906001600160a01b031681565b6040516001600160a01b0390911681526020015b60405180910390f35b60055461010d90600160401b90046001600160401b031681565b6040516001600160401b0390911681526020016100ea565b60055461010d906001600160401b031681565b6100c16101463660046107a3565b610235565b6100c16101593660046107d3565b610281565b61017161016c3660046107fb565b6102c1565b6040519081526020016100ea565b6001546001600160a01b03166100d6565b6100c161019e36600461085f565b6102d8565b6100c16101b136600461093e565b6102fc565b600554604080516001600160401b038084168252600160401b9093049092166020830152016100ea565b6001546001600160a01b031633146102135760405162461bcd60e51b815260040161020a90610971565b60405180910390fd5b600180546001600160a01b0319166001600160a01b0392909216919091179055565b6001546001600160a01b0316331461025f5760405162461bcd60e51b815260040161020a90610971565b600080546001600160a01b0319166001600160a01b0392909216919091179055565b6001546001600160a01b031633146102ab5760405162461bcd60e51b815260040161020a90610971565b8035600255602081013560035560400135600455565b600281600381106102d157600080fd5b0154905081565b6102e88888888888888888610357565b6102f28282610540565b5050505050505050565b6001546001600160a01b031633146103265760405162461bcd60e51b815260040161020a90610971565b600580546001600160401b03928316600160401b026001600160801b03199091169290931691909117919091179055565b6002541561049d5760025486866001818110610375576103756109b2565b90506020020135146103c95760405162461bcd60e51b815260206004820152601a60248201527f496e76616c696420696d61676520636f6d6d69746d656e742030000000000000604482015260640161020a565b600354868660028181106103df576103df6109b2565b90506020020135146104335760405162461bcd60e51b815260206004820152601a60248201527f496e76616c696420696d61676520636f6d6d69746d656e742031000000000000604482015260640161020a565b60045486866003818110610449576104496109b2565b905060200201351461049d5760405162461bcd60e51b815260206004820152601a60248201527f496e76616c696420696d61676520636f6d6d69746d656e742032000000000000604482015260640161020a565b60005460405163ae022ccd60e01b81526001600160a01b039091169063ae022ccd906104db908b908b908b908b908b908b908b908b906004016109fe565b60006040518083038186803b1580156104f357600080fd5b505afa158015610507573d6000803e3d6000fd5b50506040513392507f9508ee0b8ce58138ead5f169fde353bda2e3991ea16a8aa21e626fb211a3f2ef9150600090a25050505050505050565b6000604051806040016040528084846000818110610560576105606109b2565b90506020028101906105729190610add565b6000818110610583576105836109b2565b905060200201356001600160401b03168152602001848460008181106105ab576105ab6109b2565b90506020028101906105bd9190610add565b60018181106105ce576105ce6109b2565b905060200201356001600160401b031681525090506000604051806040016040528085856000818110610603576106036109b2565b90506020028101906106159190610add565b6002818110610626576106266109b2565b905060200201356001600160401b031681526020018585600081811061064e5761064e6109b2565b90506020028101906106609190610add565b6003818110610671576106716109b2565b905060200201356001600160401b03168152509050600560009054906101000a90046001600160401b03166001600160401b031682600001516001600160401b03161480156106d9575060055460208301516001600160401b03908116600160401b90920416145b61071b5760405162461bcd60e51b8152602060048201526013602482015272496e76616c696420737461727420737461746560681b604482015260640161020a565b8051600580546020808501516001600160401b039485166001600160801b03199093168317600160401b918616918202179093558551868201516040805192871683529516918101919091529283015260608201527f7aee085ce8e2eda4fac2a988081f6a26fe0adeca01c75bde1c5dbc3ca91063de9060800160405180910390a150505050565b6000602082840312156107b557600080fd5b81356001600160a01b03811681146107cc57600080fd5b9392505050565b6000606082840312156107e557600080fd5b826060830111156107f557600080fd5b50919050565b60006020828403121561080d57600080fd5b5035919050565b60008083601f84011261082657600080fd5b5081356001600160401b0381111561083d57600080fd5b6020830191508360208260051b850101111561085857600080fd5b9250929050565b6000806000806000806000806080898b03121561087b57600080fd5b88356001600160401b038082111561089257600080fd5b61089e8c838d01610814565b909a50985060208b01359150808211156108b757600080fd5b6108c38c838d01610814565b909850965060408b01359150808211156108dc57600080fd5b6108e88c838d01610814565b909650945060608b013591508082111561090157600080fd5b5061090e8b828c01610814565b999c989b5096995094979396929594505050565b80356001600160401b038116811461093957600080fd5b919050565b6000806040838503121561095157600080fd5b61095a83610922565b915061096860208401610922565b90509250929050565b60208082526021908201527f4f6e6c79206f776e65722063616e2063616c6c20746869732066756e6374696f6040820152603760f91b606082015260800190565b634e487b7160e01b600052603260045260246000fd5b81835260006001600160fb1b038311156109e157600080fd5b8260051b8083602087013760009401602001938452509192915050565b608081526000610a12608083018a8c6109c8565b602083820381850152610a26828a8c6109c8565b91508382036040850152610a3b82888a6109c8565b84810360608601528581529150808201600586811b840183018860005b89811015610ac857868303601f190185528135368c9003601e19018112610a7e57600080fd5b8b0180356001600160401b03811115610a9657600080fd5b80861b36038d1315610aa757600080fd5b610ab485828a85016109c8565b968801969450505090850190600101610a58565b50909f9e505050505050505050505050505050565b6000808335601e19843603018112610af457600080fd5b8301803591506001600160401b03821115610b0e57600080fd5b6020019150600581901b360382131561085857600080fdfea264697066735822122045b3fce2c6c20acbe002d91bfa18b5efeae7260f8ef566e83c76da8126bb44af64736f6c634300080d0033",
    "linkReferences": {}
  },
  "methodIdentifiers": {
    "DEV_ONLY_setStates(uint64,uint64)": "b6e9a4fd",
    "current_position()": "4d56acd3",
    "getStates()": "d8ab8274",
    "owner()": "8da5cb5b",
    "setOwner(address)": "13af4035",
    "setVerifier(address)": "5437988d",
    "setVerifierImageCommitments(uint256[3])": "560bfc7e",
    "submitGame(uint256[],uint256[],uint256[],uint256[][])": "9347a330",
    "total_steps()": "52de5f98",
    "verifier()": "2b7ac3f3",
    "zk_image_commitments(uint256)": "8c1336ec"
  },
  "id": 23
}